{
  "contractName": "IssuanceWhiteList",
  "abi": [
    {
      "constant": false,
      "inputs": [],
      "name": "unpause",
      "outputs": [],
      "payable": false,
      "stateMutability": "nonpayable",
      "type": "function"
    },
    {
      "constant": true,
      "inputs": [],
      "name": "paused",
      "outputs": [
        {
          "name": "",
          "type": "bool"
        }
      ],
      "payable": false,
      "stateMutability": "view",
      "type": "function"
    },
    {
      "constant": false,
      "inputs": [],
      "name": "pause",
      "outputs": [],
      "payable": false,
      "stateMutability": "nonpayable",
      "type": "function"
    },
    {
      "constant": true,
      "inputs": [],
      "name": "owner",
      "outputs": [
        {
          "name": "",
          "type": "address"
        }
      ],
      "payable": false,
      "stateMutability": "view",
      "type": "function"
    },
    {
      "constant": false,
      "inputs": [
        {
          "name": "newOwner",
          "type": "address"
        }
      ],
      "name": "transferOwnership",
      "outputs": [],
      "payable": false,
      "stateMutability": "nonpayable",
      "type": "function"
    },
    {
      "anonymous": false,
      "inputs": [
        {
          "indexed": false,
          "name": "newAgent",
          "type": "address"
        }
      ],
      "name": "NewAgentAssigned",
      "type": "event"
    },
    {
      "anonymous": false,
      "inputs": [
        {
          "indexed": false,
          "name": "qualifier",
          "type": "address"
        }
      ],
      "name": "QualifierAdded",
      "type": "event"
    },
    {
      "anonymous": false,
      "inputs": [
        {
          "indexed": false,
          "name": "qualifier",
          "type": "address"
        }
      ],
      "name": "QualifierRemoved",
      "type": "event"
    },
    {
      "anonymous": false,
      "inputs": [],
      "name": "Pause",
      "type": "event"
    },
    {
      "anonymous": false,
      "inputs": [],
      "name": "Unpause",
      "type": "event"
    },
    {
      "anonymous": false,
      "inputs": [
        {
          "indexed": true,
          "name": "previousOwner",
          "type": "address"
        },
        {
          "indexed": true,
          "name": "newOwner",
          "type": "address"
        }
      ],
      "name": "OwnershipTransferred",
      "type": "event"
    },
    {
      "anonymous": false,
      "inputs": [
        {
          "indexed": false,
          "name": "member",
          "type": "address"
        }
      ],
      "name": "MemberAdded",
      "type": "event"
    },
    {
      "anonymous": false,
      "inputs": [
        {
          "indexed": false,
          "name": "member",
          "type": "address"
        }
      ],
      "name": "MemberRemoved",
      "type": "event"
    },
    {
      "constant": false,
      "inputs": [
        {
          "name": "_agent",
          "type": "address"
        }
      ],
      "name": "setAgent",
      "outputs": [],
      "payable": false,
      "stateMutability": "nonpayable",
      "type": "function"
    },
    {
      "constant": false,
      "inputs": [
        {
          "name": "_qualifier",
          "type": "address"
        }
      ],
      "name": "addQualifier",
      "outputs": [],
      "payable": false,
      "stateMutability": "nonpayable",
      "type": "function"
    },
    {
      "constant": false,
      "inputs": [
        {
          "name": "_qualifier",
          "type": "address"
        }
      ],
      "name": "removeQualifier",
      "outputs": [],
      "payable": false,
      "stateMutability": "nonpayable",
      "type": "function"
    },
    {
      "constant": false,
      "inputs": [
        {
          "name": "_buyer",
          "type": "address"
        }
      ],
      "name": "add",
      "outputs": [
        {
          "name": "",
          "type": "bool"
        }
      ],
      "payable": false,
      "stateMutability": "nonpayable",
      "type": "function"
    },
    {
      "constant": false,
      "inputs": [
        {
          "name": "_buyer",
          "type": "address"
        }
      ],
      "name": "remove",
      "outputs": [
        {
          "name": "",
          "type": "bool"
        }
      ],
      "payable": false,
      "stateMutability": "nonpayable",
      "type": "function"
    },
    {
      "constant": true,
      "inputs": [
        {
          "name": "_buyer",
          "type": "address"
        }
      ],
      "name": "verify",
      "outputs": [
        {
          "name": "",
          "type": "bool"
        }
      ],
      "payable": false,
      "stateMutability": "view",
      "type": "function"
    }
  ],
  "bytecode": "0x60606040526000600160146101000a81548160ff02191690831515021790555033600160006101000a81548173ffffffffffffffffffffffffffffffffffffffff021916908373ffffffffffffffffffffffffffffffffffffffff160217905550610eb48061006f6000396000f3006060604052600436106100af576000357c0100000000000000000000000000000000000000000000000000000000900463ffffffff1680630a3b0a4f146100b457806329092d0e1461010557806332b1c48f1461015657806333a710941461018f5780633f4ba83a146101c85780635c975abb146101dd57806363a9c3d71461020a5780638456cb591461025b5780638da5cb5b14610270578063bcf685ed146102c5578063f2fde38b146102fe575b600080fd5b34156100bf57600080fd5b6100eb600480803573ffffffffffffffffffffffffffffffffffffffff16906020019091905050610337565b604051808215151515815260200191505060405180910390f35b341561011057600080fd5b61013c600480803573ffffffffffffffffffffffffffffffffffffffff16906020019091905050610455565b604051808215151515815260200191505060405180910390f35b341561016157600080fd5b61018d600480803573ffffffffffffffffffffffffffffffffffffffff16906020019091905050610573565b005b341561019a57600080fd5b6101c6600480803573ffffffffffffffffffffffffffffffffffffffff169060200190919050506106e5565b005b34156101d357600080fd5b6101db610857565b005b34156101e857600080fd5b6101f0610917565b604051808215151515815260200191505060405180910390f35b341561021557600080fd5b610241600480803573ffffffffffffffffffffffffffffffffffffffff1690602001909190505061092a565b604051808215151515815260200191505060405180910390f35b341561026657600080fd5b61026e610971565b005b341561027b57600080fd5b610283610a31565b604051808273ffffffffffffffffffffffffffffffffffffffff1673ffffffffffffffffffffffffffffffffffffffff16815260200191505060405180910390f35b34156102d057600080fd5b6102fc600480803573ffffffffffffffffffffffffffffffffffffffff16906020019091905050610a57565b005b341561030957600080fd5b610335600480803573ffffffffffffffffffffffffffffffffffffffff16906020019091905050610b5a565b005b600080600360003373ffffffffffffffffffffffffffffffffffffffff1673ffffffffffffffffffffffffffffffffffffffff16815260200190815260200160002060009054906101000a900460ff169050600160009054906101000a900473ffffffffffffffffffffffffffffffffffffffff1673ffffffffffffffffffffffffffffffffffffffff163373ffffffffffffffffffffffffffffffffffffffff1614806104325750600260009054906101000a900473ffffffffffffffffffffffffffffffffffffffff1673ffffffffffffffffffffffffffffffffffffffff163373ffffffffffffffffffffffffffffffffffffffff16145b8061043a5750805b151561044557600080fd5b61044e83610cb2565b5050919050565b600080600360003373ffffffffffffffffffffffffffffffffffffffff1673ffffffffffffffffffffffffffffffffffffffff16815260200190815260200160002060009054906101000a900460ff169050600160009054906101000a900473ffffffffffffffffffffffffffffffffffffffff1673ffffffffffffffffffffffffffffffffffffffff163373ffffffffffffffffffffffffffffffffffffffff1614806105505750600260009054906101000a900473ffffffffffffffffffffffffffffffffffffffff1673ffffffffffffffffffffffffffffffffffffffff163373ffffffffffffffffffffffffffffffffffffffff16145b806105585750805b151561056357600080fd5b61056c83610d73565b5050919050565b600160009054906101000a900473ffffffffffffffffffffffffffffffffffffffff1673ffffffffffffffffffffffffffffffffffffffff163373ffffffffffffffffffffffffffffffffffffffff16148061061c5750600260009054906101000a900473ffffffffffffffffffffffffffffffffffffffff1673ffffffffffffffffffffffffffffffffffffffff163373ffffffffffffffffffffffffffffffffffffffff16145b151561062757600080fd5b6000600360008373ffffffffffffffffffffffffffffffffffffffff1673ffffffffffffffffffffffffffffffffffffffff16815260200190815260200160002060006101000a81548160ff0219169083151502179055507fd1740ddb28df431ba87af2f9209f73f5831e314c2eecc02a3af0d40f2631c6d781604051808273ffffffffffffffffffffffffffffffffffffffff1673ffffffffffffffffffffffffffffffffffffffff16815260200191505060405180910390a150565b600160009054906101000a900473ffffffffffffffffffffffffffffffffffffffff1673ffffffffffffffffffffffffffffffffffffffff163373ffffffffffffffffffffffffffffffffffffffff16148061078e5750600260009054906101000a900473ffffffffffffffffffffffffffffffffffffffff1673ffffffffffffffffffffffffffffffffffffffff163373ffffffffffffffffffffffffffffffffffffffff16145b151561079957600080fd5b6001600360008373ffffffffffffffffffffffffffffffffffffffff1673ffffffffffffffffffffffffffffffffffffffff16815260200190815260200160002060006101000a81548160ff0219169083151502179055507f8b36f5f3daba47b07e1cd0f071e18ca9e5dbe4e2bfa609f037a5a603bde871f581604051808273ffffffffffffffffffffffffffffffffffffffff1673ffffffffffffffffffffffffffffffffffffffff16815260200191505060405180910390a150565b600160009054906101000a900473ffffffffffffffffffffffffffffffffffffffff1673ffffffffffffffffffffffffffffffffffffffff163373ffffffffffffffffffffffffffffffffffffffff161415156108b357600080fd5b600160149054906101000a900460ff1615156108ce57600080fd5b6000600160146101000a81548160ff0219169083151502179055507f7805862f689e2f13df9f062ff482ad3ad112aca9e0847911ed832e158c525b3360405160405180910390a1565b600160149054906101000a900460ff1681565b6000600160149054906101000a900460ff1615151561094857600080fd5b600160149054906101000a900460ff1615801561096a575061096982610e33565b5b9050919050565b600160009054906101000a900473ffffffffffffffffffffffffffffffffffffffff1673ffffffffffffffffffffffffffffffffffffffff163373ffffffffffffffffffffffffffffffffffffffff161415156109cd57600080fd5b600160149054906101000a900460ff161515156109e957600080fd5b60018060146101000a81548160ff0219169083151502179055507f6985a02210a168e66602d3235cb6db0e70f92b3ba4d376a33c0f3d9434bff62560405160405180910390a1565b600160009054906101000a900473ffffffffffffffffffffffffffffffffffffffff1681565b600160009054906101000a900473ffffffffffffffffffffffffffffffffffffffff1673ffffffffffffffffffffffffffffffffffffffff163373ffffffffffffffffffffffffffffffffffffffff16141515610ab357600080fd5b80600260006101000a81548173ffffffffffffffffffffffffffffffffffffffff021916908373ffffffffffffffffffffffffffffffffffffffff1602179055507f61a3bd1558245678bc7f935690f02a8b81f0f13ac925fbb0282af1e45fd6470b81604051808273ffffffffffffffffffffffffffffffffffffffff1673ffffffffffffffffffffffffffffffffffffffff16815260200191505060405180910390a150565b600160009054906101000a900473ffffffffffffffffffffffffffffffffffffffff1673ffffffffffffffffffffffffffffffffffffffff163373ffffffffffffffffffffffffffffffffffffffff16141515610bb657600080fd5b600073ffffffffffffffffffffffffffffffffffffffff168173ffffffffffffffffffffffffffffffffffffffff1614151515610bf257600080fd5b8073ffffffffffffffffffffffffffffffffffffffff16600160009054906101000a900473ffffffffffffffffffffffffffffffffffffffff1673ffffffffffffffffffffffffffffffffffffffff167f8be0079c531659141344cd1fd0a4f28419497f9722a3daafe3b4186f6b6457e060405160405180910390a380600160006101000a81548173ffffffffffffffffffffffffffffffffffffffff021916908373ffffffffffffffffffffffffffffffffffffffff16021790555050565b600060016000808473ffffffffffffffffffffffffffffffffffffffff1673ffffffffffffffffffffffffffffffffffffffff16815260200190815260200160002060006101000a81548160ff0219169083151502179055507fb251eb052afc73ffd02ffe85ad79990a8b3fed60d76dbc2fa2fdd7123dffd91482604051808273ffffffffffffffffffffffffffffffffffffffff1673ffffffffffffffffffffffffffffffffffffffff16815260200191505060405180910390a1919050565b6000806000808473ffffffffffffffffffffffffffffffffffffffff1673ffffffffffffffffffffffffffffffffffffffff16815260200190815260200160002060006101000a81548160ff0219169083151502179055507f6e76fb4c77256006d9c38ec7d82b45a8c8f3c27b1d6766fffc42dfb8de68449282604051808273ffffffffffffffffffffffffffffffffffffffff1673ffffffffffffffffffffffffffffffffffffffff16815260200191505060405180910390a1919050565b60008060008373ffffffffffffffffffffffffffffffffffffffff1673ffffffffffffffffffffffffffffffffffffffff16815260200190815260200160002060009054906101000a900460ff1690509190505600a165627a7a72305820f193f581836718372a9009977913bb9de68ba4af49be6ca22af3b4c7cd4051580029",
  "source": "pragma solidity ^0.4.15;\n\nimport '../node_modules/zeppelin-solidity/contracts/lifecycle/Pausable.sol';\nimport './BasicWhiteList.sol';\n\n/**\n * @title IssuanceWhiteList\n * @dev WhiteList for an AboveBoard issued token. Owner is the issuer.\n */\ncontract IssuanceWhiteList is BasicWhiteList, Pausable {\n\n  address agent;\n  mapping(address => bool) qualifiers;\n\n  event NewAgentAssigned(address newAgent);\n  event QualifierAdded(address qualifier);\n  event QualifierRemoved(address qualifier);\n  \n  modifier onlyAgentOrOwner() {\n    require(msg.sender == owner || msg.sender == agent);\n    _;\n  }\n\n  function setAgent(address _agent) onlyOwner public {\n    agent = _agent;\n    NewAgentAssigned(_agent);\n  }\n\n  function addQualifier(address _qualifier) onlyAgentOrOwner public {\n    qualifiers[_qualifier] = true;\n    QualifierAdded(_qualifier);\n  }\n\n  function removeQualifier(address _qualifier) onlyAgentOrOwner public {\n    qualifiers[_qualifier] = false;\n    QualifierRemoved(_qualifier);\n  }\n\n  // overrides add in BasicWhiteList\n  function add(address _buyer) public returns (bool) {\n    // make only executable by owner, agent, and qualifiers\n    bool isQualifier = qualifiers[msg.sender];\n    require(msg.sender == owner || msg.sender == agent || isQualifier);\n    super.add(_buyer);\n  }\n\n  // overrides remove in BasicWhiteList\n  function remove(address _buyer) public returns (bool) {\n    // make only executable by owner, agent, and qualifiers\n    bool isQualifier = qualifiers[msg.sender];\n    require(msg.sender == owner || msg.sender == agent || isQualifier);\n    super.remove(_buyer);\n  }\n\n  // overrides verify in BasicWhiteList to make it pausable\n  function verify(address _buyer) whenNotPaused public constant returns (bool) {\n    return !paused && super.verify(_buyer);\n  }\n}\n",
  "sourcePath": "/home/jordan/workspace/registry/contracts/contracts/IssuanceWhiteList.sol",
  "compiler": {
    "name": "solc",
    "version": "0.4.19+commit.c4cbbb05.Emscripten.clang"
  },
  "schemaVersion": "1.0.1",
  "updatedAt": "2018-02-14T19:12:46.107Z"
}