{
  "contractName": "RegulationDWhiteList",
  "abi": [
    {
      "constant": false,
      "inputs": [
        {
          "name": "_buyer",
          "type": "address"
        }
      ],
      "name": "remove",
      "outputs": [
        {
          "name": "",
          "type": "bool"
        }
      ],
      "payable": false,
      "stateMutability": "nonpayable",
      "type": "function"
    },
    {
      "constant": false,
      "inputs": [
        {
          "name": "_buyer",
          "type": "address"
        }
      ],
      "name": "unpause",
      "outputs": [
        {
          "name": "",
          "type": "bool"
        }
      ],
      "payable": false,
      "stateMutability": "nonpayable",
      "type": "function"
    },
    {
      "constant": true,
      "inputs": [
        {
          "name": "_buyer",
          "type": "address"
        },
        {
          "name": "_releaseDate",
          "type": "uint256"
        }
      ],
      "name": "paused",
      "outputs": [
        {
          "name": "",
          "type": "bool"
        }
      ],
      "payable": false,
      "stateMutability": "view",
      "type": "function"
    },
    {
      "constant": true,
      "inputs": [
        {
          "name": "_buyer",
          "type": "address",
          "indexed": false
        },
        {
          "name": "releaseDate",
          "type": "uint256",
          "indexed": false
        }
      ],
      "name": "verify",
      "outputs": [
        {
          "name": "",
          "type": "bool"
        }
      ],
      "payable": false,
      "stateMutability": "view",
      "type": "function",
      "anonymous": false
    },
    {
      "anonymous": false,
      "inputs": [
        {
          "indexed": false,
          "name": "member",
          "type": "address"
        }
      ],
      "name": "pause",
      "type": "function",
      "constant": false,
      "outputs": [],
      "payable": false,
      "stateMutability": "nonpayable"
    },
    {
      "anonymous": false,
      "inputs": [
        {
          "indexed": false,
          "name": "member",
          "type": "address"
        }
      ],
      "name": "owner",
      "type": "function",
      "constant": true,
      "outputs": [
        {
          "name": "",
          "type": "address"
        }
      ],
      "payable": false,
      "stateMutability": "view"
    },
    {
      "constant": false,
      "inputs": [
        {
          "name": "newOwner",
          "type": "address"
        }
      ],
      "name": "transferOwnership",
      "outputs": [],
      "payable": false,
      "stateMutability": "nonpayable",
      "type": "function"
    },
    {
      "constant": false,
      "inputs": [
        {
          "name": "_buyer",
          "type": "address"
        },
        {
          "name": "_releaseDate",
          "type": "uint256"
        }
      ],
      "name": "add",
      "outputs": [
        {
          "name": "",
          "type": "bool"
        }
      ],
      "payable": false,
      "stateMutability": "nonpayable",
      "type": "function"
    },
    {
      "anonymous": false,
      "inputs": [
        {
          "indexed": false,
          "name": "member",
          "type": "address"
        },
        {
          "indexed": false,
          "name": "releaseDate",
          "type": "uint256"
        }
      ],
      "name": "MemberAdded",
      "type": "event"
    },
    {
      "anonymous": false,
      "inputs": [
        {
          "indexed": false,
          "name": "member",
          "type": "address"
        }
      ],
      "name": "MemberRemoved",
      "type": "event"
    },
    {
      "anonymous": false,
      "inputs": [],
      "name": "Pause",
      "type": "event"
    },
    {
      "anonymous": false,
      "inputs": [],
      "name": "Unpause",
      "type": "event"
    },
    {
      "anonymous": false,
      "inputs": [
        {
          "indexed": true,
          "name": "previousOwner",
          "type": "address"
        },
        {
          "indexed": true,
          "name": "newOwner",
          "type": "address"
        }
      ],
      "name": "OwnershipTransferred",
      "type": "event"
    }
  ],
  "bytecode": "0x606060405260008060146101000a81548160ff021916908315150217905550336000806101000a81548173ffffffffffffffffffffffffffffffffffffffff021916908373ffffffffffffffffffffffffffffffffffffffff1602179055506107da8061006d6000396000f30060606040526004361061008e576000357c0100000000000000000000000000000000000000000000000000000000900463ffffffff16806329092d0e146100935780633f4ba83a146100e45780635c975abb146100f957806363a9c3d7146101265780638456cb59146101775780638da5cb5b1461018c578063f2fde38b146101e1578063f5d82b6b1461021a575b600080fd5b341561009e57600080fd5b6100ca600480803573ffffffffffffffffffffffffffffffffffffffff16906020019091905050610274565b604051808215151515815260200191505060405180910390f35b34156100ef57600080fd5b6100f7610322565b005b341561010457600080fd5b61010c6103e0565b604051808215151515815260200191505060405180910390f35b341561013157600080fd5b61015d600480803573ffffffffffffffffffffffffffffffffffffffff169060200190919050506103f3565b604051808215151515815260200191505060405180910390f35b341561018257600080fd5b61018a6104bd565b005b341561019757600080fd5b61019f61057d565b604051808273ffffffffffffffffffffffffffffffffffffffff1673ffffffffffffffffffffffffffffffffffffffff16815260200191505060405180910390f35b34156101ec57600080fd5b610218600480803573ffffffffffffffffffffffffffffffffffffffff169060200190919050506105a2565b005b341561022557600080fd5b61025a600480803573ffffffffffffffffffffffffffffffffffffffff169060200190919080359060200190919050506106f7565b604051808215151515815260200191505060405180910390f35b600080600160008473ffffffffffffffffffffffffffffffffffffffff1673ffffffffffffffffffffffffffffffffffffffff168152602001908152602001600020819055507f6e76fb4c77256006d9c38ec7d82b45a8c8f3c27b1d6766fffc42dfb8de68449282604051808273ffffffffffffffffffffffffffffffffffffffff1673ffffffffffffffffffffffffffffffffffffffff16815260200191505060405180910390a1919050565b6000809054906101000a900473ffffffffffffffffffffffffffffffffffffffff1673ffffffffffffffffffffffffffffffffffffffff163373ffffffffffffffffffffffffffffffffffffffff1614151561037d57600080fd5b600060149054906101000a900460ff16151561039857600080fd5b60008060146101000a81548160ff0219169083151502179055507f7805862f689e2f13df9f062ff482ad3ad112aca9e0847911ed832e158c525b3360405160405180910390a1565b600060149054906101000a900460ff1681565b60008060149054906101000a900460ff1615151561041057600080fd5b600060149054906101000a900460ff1615801561046c57506000600160008473ffffffffffffffffffffffffffffffffffffffff1673ffffffffffffffffffffffffffffffffffffffff16815260200190815260200160002054115b80156104b6575042600160008473ffffffffffffffffffffffffffffffffffffffff1673ffffffffffffffffffffffffffffffffffffffff16815260200190815260200160002054105b9050919050565b6000809054906101000a900473ffffffffffffffffffffffffffffffffffffffff1673ffffffffffffffffffffffffffffffffffffffff163373ffffffffffffffffffffffffffffffffffffffff1614151561051857600080fd5b600060149054906101000a900460ff1615151561053457600080fd5b6001600060146101000a81548160ff0219169083151502179055507f6985a02210a168e66602d3235cb6db0e70f92b3ba4d376a33c0f3d9434bff62560405160405180910390a1565b6000809054906101000a900473ffffffffffffffffffffffffffffffffffffffff1681565b6000809054906101000a900473ffffffffffffffffffffffffffffffffffffffff1673ffffffffffffffffffffffffffffffffffffffff163373ffffffffffffffffffffffffffffffffffffffff161415156105fd57600080fd5b600073ffffffffffffffffffffffffffffffffffffffff168173ffffffffffffffffffffffffffffffffffffffff161415151561063957600080fd5b8073ffffffffffffffffffffffffffffffffffffffff166000809054906101000a900473ffffffffffffffffffffffffffffffffffffffff1673ffffffffffffffffffffffffffffffffffffffff167f8be0079c531659141344cd1fd0a4f28419497f9722a3daafe3b4186f6b6457e060405160405180910390a3806000806101000a81548173ffffffffffffffffffffffffffffffffffffffff021916908373ffffffffffffffffffffffffffffffffffffffff16021790555050565b600081600160008573ffffffffffffffffffffffffffffffffffffffff1673ffffffffffffffffffffffffffffffffffffffff168152602001908152602001600020819055507fede8eed4383e9241982619b94dd83e488b274cced0fd07b8c0092a393defd52f8383604051808373ffffffffffffffffffffffffffffffffffffffff1673ffffffffffffffffffffffffffffffffffffffff1681526020018281526020019250505060405180910390a1929150505600a165627a7a723058208c4d2a06f20a57d7a65bf0c805668237202be4ba5a6f1d04846ab93f407d33e30029",
  "source": "pragma solidity ^0.4.15;\r\n\r\nimport '../node_modules/zeppelin-solidity/contracts/lifecycle/Pausable.sol';\r\n\r\n/**\r\n * @title RegulationDWhiteList\r\n * @dev Regulation D WhiteList\r\n */\r\ncontract RegulationDWhiteList is Pausable {\r\n\r\n  mapping(address => uint256) members; // member => release date\r\n\r\n  /// @dev Event raised when a new member is added\r\n  event MemberAdded(address member, uint256 releaseDate);\r\n\r\n  /// @dev Event raised when a member is removed\r\n  event MemberRemoved(address member);\r\n\r\n  /// @dev Verifies that a member is already added\r\n  /// @param _buyer Address of a member that we check to see if it's in the whitelist\r\n  function verify(address _buyer) whenNotPaused public constant returns (bool) {\r\n    return !paused && members[_buyer] > 0 && members[_buyer] < now;\r\n  }\r\n\r\n  /// @dev Adds a member in the member mapping\r\n  /// @param _buyer Address of a member that is added to the whitelist\r\n  /// @param _releaseDate Date when buyer can start trading\r\n  function add(address _buyer, uint256 _releaseDate) public returns (bool) {\r\n    members[_buyer] = _releaseDate;\r\n    MemberAdded(_buyer, _releaseDate);\r\n  }\r\n\r\n  /// @dev Deletes a member from the member mapping\r\n  /// @param _buyer Address of a member that is deleted from the whitelist\r\n  function remove(address _buyer) public returns (bool) {\r\n    members[_buyer] = 0;\r\n    MemberRemoved(_buyer);\r\n  }\r\n}\r\n",
  "sourcePath": "C:\\Users\\hrome\\Documents\\GitHub\\registry\\contracts\\contracts\\RegulationDWhiteList.sol",
  "compiler": {
    "name": "solc",
    "version": "0.4.18+commit.9cf6e910.Emscripten.clang"
  },
  "schemaVersion": "1.0.1",
  "updatedAt": "2018-03-05T13:17:11.789Z"
}